:100000000C9463000C948B000C948B000C948B006C
:100010000C948B000C948B000C948B000C94220598
:100020000C948B000C948B000C948B000C948B0024
:100030000C948B000C948B000C948B000C948B0014
:100040000C94A4050C948B000C948B000C948B00E6
:100050000C948B000C948B000C948B000C948B00F4
:100060000C948B000C948B000000000024002700EF
:100070002A000000000023002600290000000008DC
:10008000000201000003040700000000000000005F
:10009000010204081020408001020408102001021F
:1000A0000408102000000000250028002B00040494
:1000B0000404040404040202020202020303030310
:1000C00003030200370811241FBECFEFD8E0DEBFC4
:1000D000CDBF11E0A0E0B1E0EAEAF5E102C0059091
:1000E0000D92AA35B107D9F721E0AAE5B1E001C028
:1000F0001D92A03AB207E1F710E0C3E6D0E004C0D9
:100100002197FE010E94BE0AC236D107C9F70E949C
:1001100033060C94D30A0C940000AF92BF92CF9296
:10012000DF92EF92FF920F931F93CF93DF936C01B7
:100130007B018B01040F151FEB015E01AE18BF0898
:10014000C017D10759F06991D601ED91FC9101904A
:10015000F081E02DC6010995892B79F7C501DF9162
:10016000CF911F910F91FF90EF90DF90CF90BF90B4
:10017000AF900895833081F028F4813099F0823077
:10018000A9F008958730A9F08830C9F08430B1F41F
:10019000809180008F7D03C0809180008F77809355
:1001A0008000089584B58F7784BD089584B58F7DD0
:1001B000FBCF8091B0008F778093B000089580913D
:1001C000B0008F7DF9CF1F93CF93DF93282F30E0BE
:1001D000F901E458FF4F8491F901E057FF4FD491A2
:1001E000F901E255FF4FC491CC23A9F0162F8111DC
:1001F0000E94BA00EC2FF0E0EE0FFF1FEC55FF4F0E
:10020000A591B4918FB7F894EC91111108C0D095D5
:10021000DE23DC938FBFDF91CF911F910895DE2BFA
:10022000F8CFCF93DF9390E0FC01E057FF4F24918C
:1002300082559F4FFC0184918823C9F090E0880F7C
:10024000991FFC01E859FF4FA591B491FC01EC55B1
:10025000FF4FC591D49161110DC09FB7F8948C9157
:10026000209582238C938881282328839FBFDF9148
:10027000CF910895623051F49FB7F8943C91822F4A
:10028000809583238C93E8812E2BEFCF8FB7F89442
:10029000EC912E2B2C938FBFEACFCF92DF92EF926F
:1002A000FF921F93CF93DF936B017C01809100013C
:1002B0008A3051F08F3FF9F0DF91CF911F91FF907D
:1002C000EF90DF90CF900895E2ECF0E0C491C7FD8D
:1002D000F3CF61E08AE00E941101CC2309F479C0D8
:1002E000C23009F09DC08091B100887F8360809307
:1002F000B100D2E573C08AE080930001E2ECF0E047
:10030000C491CF3FC9F2C13021F150F0C23009F49D
:100310003EC0C7FDD1CF61E08AE00E941101E0CF6D
:1003200014BC15BC84B5826084BD85B5816085BD73
:10033000E8EBF0E0E491F0E0EE0FFF1FEC55FF4F2B
:1003400085919491EAE9F0E0E491E0937B01C0E0CB
:10035000C0CF10928000109281008091810088604F
:100360008093810080918100816080938100E8EB1F
:10037000F0E0E491F0E0EE0FFF1FEC55FF4F8591A8
:100380009491EAE9F0E0E491E0937A01A2CF10922F
:10039000B0001092B1008091B00082608093B000F4
:1003A0008091B10081608093B100E8EBF0E0E491CE
:1003B000F0E0EE0FFF1FEC55FF4F85919491909365
:1003C000790180937801EAE9F0E0E491E093770124
:1003D00080CF85B5887F836085BDD8E210E0A0E737
:1003E000B7E1A70196010E94B30A28EE33E040E08E
:1003F00050E00E94910AC130F1F0C23081F1C11188
:100400005BCFD7BD20938401309385014093860153
:100410005093870180916E00826080936E004CCF74
:10042000C13031F480918100887F816080938100A8
:10043000D9E61AE0D4CF8D2F912F90938900809325
:100440008800209380013093810140938201509372
:10045000830180916F00826080936F002DCFD093D5
:10046000B30020937C0130937D0140937E01509333
:100470007F01809170008260809370001DCF3FB734
:10048000F89480915B0190915C01A0915D01B09125
:100490005E0126B5A89B05C02F3F19F00196A11D4E
:1004A000B11D3FBFBA2FA92F982F8827BC01CD01BE
:1004B000620F711D811D911D42E0660F771F881F1D
:1004C000991F4A95D1F708958F929F92AF92BF924C
:1004D000CF92DF92EF92FF924B015C010E943F02AC
:1004E0006B017C010E943F026C197D098E099F09F6
:1004F000683E734081059105A8F321E0821A9108B6
:10050000A108B10888EEC80E83E0D81EE11CF11CDA
:1005100081149104A104B10429F7FF90EF90DF90BA
:10052000CF90BF90AF909F908F900895089590E0E6
:1005300080E00895FC0101900020E9F73197AF01B8
:10054000481B590BBC0188E891E00C948D008F92F8
:100550009F92AF92BF920F931F93CF93DF93CDB72C
:10056000DEB7A1970FB6F894DEBF0FBECDBF19A2BC
:10057000423008F44AE08E010F5D1F4F842E912C0B
:10058000B12CA12CA50194010E94910AE62FB9017A
:10059000CA01EA30F4F4E05DD801EE938D01232B1B
:1005A000242B252B79F790E080E0109719F0CD01EE
:1005B0000E949A02A1960FB6F894DEBF0FBECDBF7F
:1005C000DF91CF911F910F91BF90AF909F908F902F
:1005D0000895E95CE1CFCF93DF93EC0160E08E8179
:1005E0000E94E30061E08E810E94E30060E08E8162
:1005F0000E94E3008BE891E00197F1F7DF91CF9142
:100600000895CF92DF92EF92FF920F931F93CF93B3
:10061000DF936C017C0187E0E80EF11CD0E0C0E0C4
:10062000062F10E0B8010C2E02C0759567950A944C
:10063000E2F76170F70181917F010E94E30021964A
:10064000C430D10579F7C601DF91CF911F910F9189
:10065000FF90EF90DF90CF900C94EB02CF92DF925F
:10066000EF92FF920F931F93CF93DF93EC01F62E3F
:10067000642F8C810E94E3008D818F3F19F060E030
:100680000E94E3000F2D10E08F8584FF25C06E01CE
:1006900087E0C80ED11CF12CE12CB8010E2C02C051
:1006A000759567950A94E2F76170F60181916F0183
:1006B0000E94E300FFEFEF1AFF0A88E0E816F1045A
:1006C00061F7CE01DF91CF911F910F91FF90EF90D5
:1006D000DF90CF900C94EB02B80184E0759567959C
:1006E0008A95E1F7CE010E9401036F2DCE01DF91C3
:1006F000CF911F910F91FF90EF90DF90CF900C94CE
:10070000010340E0682F88E891E00C942E0381E01B
:100710000E9481038BE39FE10197F1F70895CF9346
:10072000DF93823029F4909197019860909397011C
:1007300080939B0110929C0180E480939D0180E155
:1007400080939E0180E580939F0161E080918C0100
:100750000E94110180918D018F3F19F061E00E948C
:10076000110161E080918E010E941101C8E8D1E081
:100770009E01285831408091970184FD0BC084E090
:1007800090E021962817390744F461E08E810E9499
:100790001101EECF88E090E0F4CF8BE39DE001976C
:1007A000F1F760E080918C010E94E30060E08091AD
:1007B0008E010E94E30080918D018F3F19F060E06F
:1007C0000E94E3008091970184FD34C063E088E8D3
:1007D00091E00E940103CBE4D6E4CE010197F1F74A
:1007E00063E088E891E00E9401032197F1F763E05C
:1007F00088E891E00E94010383E592E00197F1F718
:1008000062E088E891E00E94010380919701806294
:100810000E94810384E0809398018CE00E94810310
:100820000E94870382E08093990186E0DF91CF9157
:100830000C94810380620E9481038BE496E401970B
:10084000F1F78091970180620E94810383E592E035
:100850000197F1F78091970180620E948103D5CFC3
:1008600090919B01891710F08FEF890FE82FF0E02E
:10087000E857FE4F848980680C94810341E00E9410
:100880002E0381E090E008954F925F926F927F92E5
:100890008F929F92AF92BF92CF92DF92EF92FF9290
:1008A0000F931F93CF936B017C01742EAC019B01BE
:1008B0000E948C0A882399F08DE091E0CF911F91DE
:1008C0000F91FF90EF90DF90CF90BF90AF909F90EF
:1008D0008F907F906F905F904F900C949A0246019A
:1008E0005701E894B7F82FEF3FEF4FE75FE7C501F7
:1008F000B4010E948C0A81110DC02FEF3FEF4FE72A
:100900005FE7C501B4010E94C20818161CF481E11A
:1009100091E0D4CF2FEF3FEF4FE75FE4C701B6017F
:100920000E941A0A18161CF485E191E0C7CF2FEF38
:100930003FEF4FE75FECC701B6010E94C20887FD99
:10094000F3CF20E030E0A901C701B6010E94C20840
:1009500010E000E087FF0CC041E06DE288E891E024
:100960000E942E03F7FAF094F7F8F09401E010E0FB
:10097000C0E060E070E080E09FE37C1641F020E0A2
:1009800030E040E251E40E94C708CF5FF6CFA701F4
:1009900096010E9456084B015C010E9439092B0107
:1009A0003C014AE00E94A702080F191FCC23C9F19D
:1009B000C301B2010E9468099B01AC01C501B401E9
:1009C0000E9455084B015C0141E06EE288E891E02D
:1009D0000E942E030F5F1F4FC15018F120E030E03E
:1009E00040E251E4C501B4010E941F0A2B013C0101
:1009F0000E9439094B01B12CA12C4AE0C501B40178
:100A00000E94A702080F191FC501B4010E946809BE
:100A10009B01AC01C301B2010E9455084B015C016E
:100A2000DBCFC801CF911F910F91FF90EF90DF9026
:100A3000CF90BF90AF909F908F907F906F905F907E
:100A40004F9008951F920F920FB60F9211242F937B
:100A50003F934F935F936F937F938F939F93AF9346
:100A6000BF93EF93FF9380917C0190917D01A091C2
:100A70007E01B0917F01892B8A2B8B2BD1F1909134
:100A80007701E0917801F091790180818927808355
:100A900080917C0190917D01A0917E01B0917F01B8
:100AA000181619061A061B069CF480917C01909179
:100AB0007D01A0917E01B0917F010197A109B1094B
:100AC00080937C0190937D01A0937E01B0937F0180
:100AD000FF91EF91BF91AF919F918F917F916F9116
:100AE0005F914F913F912F910F900FBE0F901F90EC
:100AF000189580910001E2ECF0E0E4919FEF909373
:100B00000001E13051F030F0E23069F060E00E9425
:100B1000E300DECF10926E00F9CF90916F009D7FC1
:100B200090936F00F3CF909170009D7F9093700031
:100B300091E09093B0009091B100987F9460909371
:100B4000B1001092B300E2CF1F920F920FB60F9236
:100B500011242F933F938F939F93AF93BF938091D3
:100B60005F0190916001A0916101B09162013091AB
:100B70005A0123E0230F2D3758F50196A11DB11D11
:100B800020935A0180935F0190936001A0936101CB
:100B9000B093620180915B0190915C01A0915D0135
:100BA000B0915E010196A11DB11D80935B019093F0
:100BB0005C01A0935D01B0935E01BF91AF919F91E5
:100BC0008F913F912F910F900FBE0F901F9018950E
:100BD00026E8230F0296A11DB11DD2CFCF92DF923E
:100BE000EF92FF920F931F93E82FF92F05C001504A
:100BF00011092109310961F1908196239417B9F304
:100C000005C0015011092109310911F19081962384
:100C10009413F7CFC12CD12CE12CF12C0AC08FEF0B
:100C2000C81AD80AE80AF80A0C151D052E053F0552
:100C300079F080818623841791F36C2D7D2D8E2D84
:100C40009F2D1F910F91FF90EF90DF90CF9008950F
:100C500060E070E080E090E01F910F91FF90EF90D6
:100C6000DF90CF900895789484B5826084BD84B578
:100C7000816084BD85B5826085BD85B5816085BD97
:100C800080916E00816080936E001092810080914F
:100C900081008260809381008091810081608093D7
:100CA0008100809180008160809380008091B100FC
:100CB00084608093B1008091B00081608093B00027
:100CC00080917A00846080937A0080917A008260BB
:100CD00080937A0080917A00816080937A0080917D
:100CE0007A00806880937A001092C10062E083E10C
:100CF0000E94110160E08EE00E94110161E08FE02E
:100D00000E94110161E089E00E94110161E088E028
:100D10000E94110161E08AE00E94110182E00E94BC
:100D20008F030E94870380E00E94300489E191E0F4
:100D30000E949A0281E00E9430048AE291E00E94BF
:100D40009A0260ED77E080E090E00E9464020E94E9
:100D5000870323E0C22ED12C33E2A32EB12C4FE81F
:100D6000242E40E0342E53EA452E50E0552E61ECFF
:100D7000662E60E0762E70E0872E70E0972EC1E040
:100D8000D0E0E2E0EE2EF12C60E08FE00E94E30084
:100D9000C6010197F1F761E08FE00E94E300C50111
:100DA0000197F1F7EEE9F0E06491ECEBF0E084916B
:100DB000E82FF0E0EE0FFF1FEE58FF4F8591949162
:100DC00000E412E42FE030E0462F0E94EE056115AA
:100DD00071058105910529F06F5F7F4F8F4F9F4F00
:100DE0009F700E946A0920E030E044EE51E40E94C6
:100DF000C70820E030E040E05FE30E941F0A6093F4
:100E0000730170937401809375019093760120E0D3
:100E100030E040EF51E40E94C2081816CCF08091F7
:100E2000710190917201892B99F42FB7F8948091F8
:100E30005F0190916001A0916101B09162012FBFAB
:100E40009093700180936F01D0937201C0937101F0
:100E500020E030E040EA51E4609173017091740148
:100E600080917501909176010E94C2081816CCF00D
:100E700080916D0190916E01892B99F42FB7F894B0
:100E800080915F0190916001A0916101B091620138
:100E90002FBF90936C0180936B01D0936E01C09330
:100EA0006D018091710190917201019709F06DC0FF
:100EB00080916D0190916E01019709F066C0F092EA
:100EC0007201E0927101F0926E01E0926D018091E9
:100ED0006F019091700160916B0170916C016817C6
:100EE00079070CF0ADC09C01261B370BB901072E0A
:100EF000000C880B990B0E946A096093670170933C
:100F000068018093690190936A0120E030E04AE72C
:100F100054E460916701709168018091690190913A
:100F20006A010E94C7089B01AC01209367013093BE
:100F300068014093690150936A0160E070E080E2CB
:100F400091E40E94C70820E030E041E655E40E94A9
:100F50001F0A20E030E04AE754E40E94C70860938B
:100F6000630170936401809365019093660160E072
:100F700089E00E94E30061E088E00E94E30068EC01
:100F800070E080E090E00E944D01F1018491F20157
:100F90000491F301149111115AC01092630110923F
:100FA0006401109265011092660110927201109214
:100FB000710110926E0110926D0161E089E00E9452
:100FC000E30060E088E00E94E30060E971E080E017
:100FD00090E00E944D0180E00E9430048BE391E09C
:100FE0000E949A0260917301709174018091750161
:100FF0009091760142E00E94440488E491E00E94CE
:101000009A0281E00E9430048CE491E00E949A02EE
:101010006091630170916401809165019091660116
:1010200042E00E9444046AE070E080E090E00E94A8
:1010300064028114910409F4A7CE0E940000A4CE9A
:10104000861797070CF061CF681B790B50CF811181
:101050000E94BA00E12FF0E0EE0FFF1FEE58FF4FA5
:10106000A591B4918C91082309F497CFB4CFE8E807
:10107000F1E01382128285E091E09183808382E027
:1010800084838FEF858383E0868384E0878385E094
:10109000808786E0818787E082871386148615869D
:1010A0001686178681E00C948F035058BB27AA2719
:1010B0000E946D080C94E0090E94D20938F00E9449
:1010C000D90920F039F49F3F19F426F40C94CF0984
:1010D0000EF4E095E7FB0C94C909E92F0E94F10991
:1010E00058F3BA17620773078407950720F079F45D
:1010F000A6F50C94130A0EF4E0950B2EBA2FA02D32
:101100000B01B90190010C01CA01A0011124FF27B4
:10111000591B99F0593F50F4503E68F11A16F040AF
:10112000A22F232F342F4427585FF3CF46953795AE
:101130002795A795F0405395C9F77EF41F16BA0B73
:10114000620B730B840BBAF09150A1F0FF0FBB1F21
:10115000661F771F881FC2F70EC0BA0F621F731F6A
:10116000841F48F4879577956795B795F7959E3FC7
:1011700008F0B0CF9395880F08F09927EE0F979558
:10118000879508950E94A50908F481E008950E94BA
:10119000DB080C94E0090E94D90958F00E94D2099A
:1011A00040F029F45F3F29F00C94C90951110C94C7
:1011B000140A0C94CF090E94F10968F39923B1F342
:1011C000552391F3951B550BBB27AA27621773076D
:1011D000840738F09F5F5F4F220F331F441FAA1F01
:1011E000A9F335D00E2E3AF0E0E832D091505040BD
:1011F000E695001CCAF72BD0FE2F29D0660F771F6B
:10120000881FBB1F261737074807AB07B0E809F050
:10121000BB0B802DBF01FF2793585F4F3AF09E3FD5
:10122000510578F00C94C9090C94140A5F3FE4F35B
:10123000983ED4F3869577956795B795F7959F5F18
:10124000C9F7880F911D9695879597F90895E1E064
:10125000660F771F881FBB1F621773078407BA07C3
:1012600020F0621B730B840BBA0BEE1F88F7E0951E
:1012700008950E94F90988F09F5798F0B92F99278F
:10128000B751B0F0E1F0660F771F881F991F1AF071
:10129000BA95C9F714C0B13091F00E94130AB1E0B9
:1012A00008950C94130A672F782F8827B85F39F0B8
:1012B000B93FCCF3869577956795B395D9F73EF40A
:1012C00090958095709561957F4F8F4F9F4F0895B2
:1012D000E89409C097FB3EF49095809570956195D0
:1012E0007F4F8F4F9F4F9923A9F0F92F96E9BB2786
:1012F0009395F695879577956795B795F111F8CF02
:10130000FAF4BB0F11F460FF1BC06F5F7F4F8F4F6C
:101310009F4F16C0882311F096E911C0772321F062
:101320009EE8872F762F05C0662371F096E8862FFA
:1013300070E060E02AF09A95660F771F881FDAF751
:10134000880F9695879597F90895990F0008550F7E
:10135000AA0BE0E8FEEF16161706E807F907C0F03B
:1013600012161306E407F50798F0621B730B840B43
:10137000950B39F40A2661F0232B242B252B21F41D
:1013800008950A2609F4A140A6958FEF811D811DBD
:10139000089597F99F6780E870E060E008959FEFF7
:1013A00080EC089500240A941616170618060906FC
:1013B000089500240A9412161306140605060895CB
:1013C000092E0394000C11F4882352F0BB0F40F453
:1013D000BF2B11F460FF04C06F5F7F4F8F4F9F4F93
:1013E000089557FD9058440F551F59F05F3F71F015
:1013F0004795880F97FB991F61F09F3F79F087957C
:101400000895121613061406551FF2CF4695F1DF04
:1014100008C0161617061806991FF1CF8695710594
:10142000610508940895E894BB2766277727CB01C8
:1014300097F908950E94A50908F48FEF08950E9476
:10144000320A0C94E0090E94D20938F00E94D909AE
:1014500020F0952311F00C94C9090C94CF091124A4
:101460000C94140A0E94F10970F3959FC1F3950F33
:1014700050E0551F629FF001729FBB27F00DB11D18
:10148000639FAA27F00DB11DAA1F649F6627B00DA8
:10149000A11D661F829F2227B00DA11D621F739F91
:1014A000B00DA11D621F839FA00D611D221F749F9F
:1014B0003327A00D611D231F849F600D211D822FE6
:1014C000762F6A2F11249F5750409AF0F1F088230D
:1014D0004AF0EE0FFF1FBB1F661F771F881F91503A
:1014E0005040A9F79E3F510580F00C94C9090C9417
:1014F000140A5F3FE4F3983ED4F386957795679599
:10150000B795F795E7959F5FC1F7FE2B880F911D63
:101510009695879597F908950E94A509880B990BD0
:101520000895A1E21A2EAA1BBB1BFD010DC0AA1F24
:10153000BB1FEE1FFF1FA217B307E407F50720F03C
:10154000A21BB30BE40BF50B661F771F881F991FB7
:101550001A9469F760957095809590959B01AC0100
:10156000BD01CF0108950E94C40AA59F900DB49FAC
:10157000900DA49F800D911D11240895EE0FFF1F63
:101580000590F491E02D0994A29FB001B39FC00192
:10159000A39F700D811D1124911DB29F700D811D9F
:0A15A0001124911D0895F894FFCF67
:1015AA00FF000000003E048D00970296026E616EF5
:1015BA0000696E66006F7666002056656869636C1E
:1015CA00652020537065656420002020204D6561E8
:1015DA00737572656D656E74202000446973742E8C
:1015EA0020696E20636D20002020200053706565FD
:0A15FA0064204B6D2F4872200000A2
:00000001FF
